Component: ARM Compiler 5.06 update 5 (build 528) Tool: armlink [4d35e2]

==============================================================================

Section Cross References

    startup_stm32f103xe.o(RESET) refers to startup_stm32f103xe.o(STACK) for __initial_sp
    startup_stm32f103xe.o(RESET) refers to startup_stm32f103xe.o(.text) for Reset_Handler
    startup_stm32f103xe.o(RESET) refers to stm32f1xx_it.o(i.NMI_Handler) for NMI_Handler
    startup_stm32f103xe.o(RESET) refers to stm32f1xx_it.o(i.HardFault_Handler) for HardFault_Handler
    startup_stm32f103xe.o(RESET) refers to stm32f1xx_it.o(i.MemManage_Handler) for MemManage_Handler
    startup_stm32f103xe.o(RESET) refers to stm32f1xx_it.o(i.BusFault_Handler) for BusFault_Handler
    startup_stm32f103xe.o(RESET) refers to stm32f1xx_it.o(i.UsageFault_Handler) for UsageFault_Handler
    startup_stm32f103xe.o(RESET) refers to stm32f1xx_it.o(i.SVC_Handler) for SVC_Handler
    startup_stm32f103xe.o(RESET) refers to stm32f1xx_it.o(i.DebugMon_Handler) for DebugMon_Handler
    startup_stm32f103xe.o(RESET) refers to stm32f1xx_it.o(i.PendSV_Handler) for PendSV_Handler
    startup_stm32f103xe.o(RESET) refers to stm32f1xx_it.o(i.SysTick_Handler) for SysTick_Handler
    startup_stm32f103xe.o(RESET) refers to stm32f1xx_it.o(i.USART1_IRQHandler) for USART1_IRQHandler
    startup_stm32f103xe.o(RESET) refers to stm32f1xx_it.o(i.USART2_IRQHandler) for USART2_IRQHandler
    startup_stm32f103xe.o(RESET) refers to stm32f1xx_it.o(i.USART3_IRQHandler) for USART3_IRQHandler
    startup_stm32f103xe.o(.text) refers to system_stm32f1xx.o(i.SystemInit) for SystemInit
    startup_stm32f103xe.o(.text) refers to entry.o(.ARM.Collect$$$$00000000) for __main
    system_stm32f1xx.o(i.SystemCoreClockUpdate) refers to system_stm32f1xx.o(.data) for .data
    system_stm32f1xx.o(i.SystemCoreClockUpdate) refers to system_stm32f1xx.o(.constdata) for .constdata
==============================================================================

Removing Unused input sections from the image.

    Removing startup_stm32f103xe.o(HEAP), (512 bytes).
    Removing system_stm32f1xx.o(.rev16_text), (4 bytes).
    Removing system_stm32f1xx.o(.revsh_text), (4 bytes).
    Removing system_stm32f1xx.o(.rrx_text), (6 bytes).
    Removing system_stm32f1xx.o(i.SystemCoreClockUpdate), (104 bytes).
    Removing main.o(.rev16_text), (4 bytes).
    Removing main.o(.revsh_text), (4 bytes).
    Removing main.o(.rrx_text), (6 bytes).
    Removing main.o(i._Error_Handler), (2 bytes).
    Removing stm32f1xx_it.o(.rev16_text), (4 bytes).
    Removing stm32f1xx_it.o(.revsh_text), (4 bytes).
    Removing stm32f1xx_it.o(.rrx_text), (6 bytes).
    Removing stm32f1xx_hal_msp.o(.rev16_text), (4 bytes).
    Removing stm32f1xx_hal_msp.o(.revsh_text), (4 bytes).
    Removing stm32f1xx_hal_msp.o(.rrx_text), (6 bytes).
    Removing stm32f1xx_hal_msp.o(i.HAL_TIM_PWM_MspDeInit), (28 bytes).
    Removing stm32f1xx_hal_msp.o(i.HAL_UART_MspDeInit), (116 bytes).
    Removing motion.o(i.MOTION_BACK), (56 bytes).
==============================================================================

Image Symbol Table

    Local Symbols

    Symbol Name                              Value     Ov Type        Size  Object(Section)

    ../Drivers/STM32F1xx_HAL_Driver/Src/stm32f1xx_hal.c 0x00000000   Number         0  stm32f1xx_hal.o ABSOLUTE
    ../Drivers/STM32F1xx_HAL_Driver/Src/stm32f1xx_hal_cortex.c 0x00000000   Number         0  stm32f1xx_hal_cortex.o ABSOLUTE
    ../Drivers/STM32F1xx_HAL_Driver/Src/stm32f1xx_hal_dma.c 0x00000000   Number         0  stm32f1xx_hal_dma.o ABSOLUTE
    ../Drivers/STM32F1xx_HAL_Driver/Src/stm32f1xx_hal_flash.c 0x00000000   Number         0  stm32f1xx_hal_flash.o ABSOLUTE
    ../Drivers/STM32F1xx_HAL_Driver/Src/stm32f1xx_hal_flash_ex.c 0x00000000   Number         0  stm32f1xx_hal_flash_ex.o ABSOLUTE
    ../Drivers/STM32F1xx_HAL_Driver/Src/stm32f1xx_hal_gpio.c 0x00000000   Number         0  stm32f1xx_hal_gpio.o ABSOLUTE
    ../Drivers/STM32F1xx_HAL_Driver/Src/stm32f1xx_hal_gpio_ex.c 0x00000000   Number         0  stm32f1xx_hal_gpio_ex.o ABSOLUTE
    ../Drivers/STM32F1xx_HAL_Driver/Src/stm32f1xx_hal_pwr.c 0x00000000   Number         0  stm32f1xx_hal_pwr.o ABSOLUTE
    ../Drivers/STM32F1xx_HAL_Driver/Src/stm32f1xx_hal_rcc.c 0x00000000   Number         0  stm32f1xx_hal_rcc.o ABSOLUTE
    ../Drivers/STM32F1xx_HAL_Driver/Src/stm32f1xx_hal_rcc_ex.c 0x00000000   Number         0  stm32f1xx_hal_rcc_ex.o ABSOLUTE
    ../Drivers/STM32F1xx_HAL_Driver/Src/stm32f1xx_hal_tim.c 0x00000000   Number         0  stm32f1xx_hal_tim.o ABSOLUTE
    ../Drivers/STM32F1xx_HAL_Driver/Src/stm32f1xx_hal_tim_ex.c 0x00000000   Number         0  stm32f1xx_hal_tim_ex.o ABSOLUTE
    ../Drivers/STM32F1xx_HAL_Driver/Src/stm32f1xx_hal_uart.c 0x00000000   Number         0  stm32f1xx_hal_uart.o ABSOLUTE
    ../Src/main.c                            0x00000000   Number         0  main.o ABSOLUTE
    ../Src/stm32f1xx_hal_msp.c               0x00000000   Number         0  stm32f1xx_hal_msp.o ABSOLUTE
    ../Src/stm32f1xx_it.c                    0x00000000   Number         0  stm32f1xx_it.o ABSOLUTE
    ../Src/system_stm32f1xx.c                0x00000000   Number         0  system_stm32f1xx.o ABSOLUTE
    ../clib/microlib/division.c              0x00000000   Number         0  uldiv.o ABSOLUTE
    ../clib/microlib/division.c              0x00000000   Number         0  uidiv.o ABSOLUTE
    ../clib/microlib/errno.c                 0x00000000   Number         0  errno.o ABSOLUTE
    ../clib/microlib/init/entry.s            0x00000000   Number         0  entry10a.o ABSOLUTE
    ../clib/microlib/init/entry.s            0x00000000   Number         0  entry10b.o ABSOLUTE
    ../clib/microlib/init/entry.s            0x00000000   Number         0  entry2.o ABSOLUTE
    ../clib/microlib/init/entry.s            0x00000000   Number         0  entry11b.o ABSOLUTE
    ../clib/microlib/init/entry.s            0x00000000   Number         0  entry11a.o ABSOLUTE
    ../clib/microlib/init/entry.s            0x00000000   Number         0  entry.o ABSOLUTE
    ../clib/microlib/init/entry.s            0x00000000   Number         0  entry5.o ABSOLUTE
    ../clib/microlib/init/entry.s            0x00000000   Number         0  entry7a.o ABSOLUTE
    ../clib/microlib/init/entry.s            0x00000000   Number         0  entry7b.o ABSOLUTE
    ../clib/microlib/init/entry.s            0x00000000   Number         0  entry8a.o ABSOLUTE
    ../clib/microlib/init/entry.s            0x00000000   Number         0  entry8b.o ABSOLUTE
    ../clib/microlib/init/entry.s            0x00000000   Number         0  entry9a.o ABSOLUTE
    ../clib/microlib/init/entry.s            0x00000000   Number         0  entry9b.o ABSOLUTE
    ../clib/microlib/longlong.c              0x00000000   Number         0  llshl.o ABSOLUTE
    ../clib/microlib/longlong.c              0x00000000   Number         0  llushr.o ABSOLUTE
    ../clib/microlib/longlong.c              0x00000000   Number         0  llsshr.o ABSOLUTE
    ../clib/microlib/printf/printf.c         0x00000000   Number         0  printf7.o ABSOLUTE
    ../clib/microlib/printf/printf.c         0x00000000   Number         0  printf3.o ABSOLUTE
    ../clib/microlib/printf/printf.c         0x00000000   Number         0  printf4.o ABSOLUTE
    ../clib/microlib/printf/printf.c         0x00000000   Number         0  printf8.o ABSOLUTE
    ../clib/microlib/printf/printf.c         0x00000000   Number         0  printf5.o ABSOLUTE
    ../clib/microlib/printf/printf.c         0x00000000   Number         0  printfa.o ABSOLUTE
    ../clib/microlib/printf/printf.c         0x00000000   Number         0  printf6.o ABSOLUTE
    ../clib/microlib/printf/printf.c         0x00000000   Number         0  printf0.o ABSOLUTE
    ../clib/microlib/printf/printf.c         0x00000000   Number         0  printfb.o ABSOLUTE
    ../clib/microlib/printf/printf.c         0x00000000   Number         0  printf1.o ABSOLUTE
    ../clib/microlib/printf/printf.c         0x00000000   Number         0  printf2.o ABSOLUTE
    ../clib/microlib/printf/stubs.s          0x00000000   Number         0  stubs.o ABSOLUTE
    ../clib/microlib/stdio/fputc.c           0x00000000   Number         0  fputc.o ABSOLUTE
    ../clib/microlib/stdio/semi.s            0x00000000   Number         0  semi.o ABSOLUTE
    ../clib/microlib/stdio/streams.c         0x00000000   Number         0  stdout.o ABSOLUTE
    ../clib/microlib/string/strlen.c         0x00000000   Number         0  strlen.o ABSOLUTE
    ../clib/microlib/stubs.s                 0x00000000   Number         0  iusefp.o ABSOLUTE
    ../clib/microlib/stubs.s                 0x00000000   Number         0  iusesemip.o ABSOLUTE
    ../fplib/microlib/d2f.c                  0x00000000   Number         0  d2f.o ABSOLUTE
    ../fplib/microlib/f2d.c                  0x00000000   Number         0  f2d.o ABSOLUTE
    ../fplib/microlib/fpadd.c                0x00000000   Number         0  dadd.o ABSOLUTE
    ../fplib/microlib/fpadd.c                0x00000000   Number         0  fadd.o ABSOLUTE
    ../fplib/microlib/fpdiv.c                0x00000000   Number         0  ddiv.o ABSOLUTE
    ../fplib/microlib/fpdiv.c                0x00000000   Number         0  fdiv.o ABSOLUTE
    ../fplib/microlib/fpepilogue.c           0x00000000   Number         0  fepilogue.o ABSOLUTE
    ../fplib/microlib/fpepilogue.c           0x00000000   Number         0  depilogue.o ABSOLUTE
    ../fplib/microlib/fpfix.c                0x00000000   Number         0  dfixul.o ABSOLUTE
    ../fplib/microlib/fpfix.c                0x00000000   Number         0  ffixi.o ABSOLUTE
    ../fplib/microlib/fpflt.c                0x00000000   Number         0  fflti.o ABSOLUTE
    ../fplib/microlib/fpflt.c                0x00000000   Number         0  dflti.o ABSOLUTE
    ../fplib/microlib/fpmul.c                0x00000000   Number         0  dmul.o ABSOLUTE
    ../fplib/microlib/fpmul.c                0x00000000   Number         0  fmul.o ABSOLUTE
    ../fplib/microlib/fpscalb.c              0x00000000   Number         0  fscalb.o ABSOLUTE
    ../fplib/microlib/fpscalb.c              0x00000000   Number         0  dscalb.o ABSOLUTE
    ../fplib/microlib/fpsqrt.c               0x00000000   Number         0  dsqrt.o ABSOLUTE
    ../mathlib/atan.c                        0x00000000   Number         0  atan_x.o ABSOLUTE
    ../mathlib/atan.c                        0x00000000   Number         0  atan.o ABSOLUTE
    ../mathlib/atan2.c                       0x00000000   Number         0  atan2_x.o ABSOLUTE
    ../mathlib/atan2.c                       0x00000000   Number         0  atan2.o ABSOLUTE
    ../mathlib/dunder.c                      0x00000000   Number         0  dunder.o ABSOLUTE
    ../mathlib/fpclassify.c                  0x00000000   Number         0  fpclassify.o ABSOLUTE
    ../mathlib/poly.c                        0x00000000   Number         0  poly.o ABSOLUTE
    ../mathlib/qnan.c                        0x00000000   Number         0  qnan.o ABSOLUTE
    ../mathlib/sqrt.c                        0x00000000   Number         0  sqrt.o ABSOLUTE
    ../mathlib/sqrt.c                        0x00000000   Number         0  sqrt_x.o ABSOLUTE
    ..\Drivers\STM32F1xx_HAL_Driver\Src\stm32f1xx_hal.c 0x00000000   Number         0  stm32f1xx_hal.o ABSOLUTE
    ..\Drivers\STM32F1xx_HAL_Driver\Src\stm32f1xx_hal_cortex.c 0x00000000   Number         0  stm32f1xx_hal_cortex.o ABSOLUTE
    ..\Drivers\STM32F1xx_HAL_Driver\Src\stm32f1xx_hal_dma.c 0x00000000   Number         0  stm32f1xx_hal_dma.o ABSOLUTE
    ..\Drivers\STM32F1xx_HAL_Driver\Src\stm32f1xx_hal_flash.c 0x00000000   Number         0  stm32f1xx_hal_flash.o ABSOLUTE
    ..\Drivers\STM32F1xx_HAL_Driver\Src\stm32f1xx_hal_flash_ex.c 0x00000000   Number         0  stm32f1xx_hal_flash_ex.o ABSOLUTE
    ..\Drivers\STM32F1xx_HAL_Driver\Src\stm32f1xx_hal_gpio.c 0x00000000   Number         0  stm32f1xx_hal_gpio.o ABSOLUTE
    ..\Drivers\STM32F1xx_HAL_Driver\Src\stm32f1xx_hal_gpio_ex.c 0x00000000   Number         0  stm32f1xx_hal_gpio_ex.o ABSOLUTE
    ..\Drivers\STM32F1xx_HAL_Driver\Src\stm32f1xx_hal_pwr.c 0x00000000   Number         0  stm32f1xx_hal_pwr.o ABSOLUTE
    ..\Drivers\STM32F1xx_HAL_Driver\Src\stm32f1xx_hal_rcc.c 0x00000000   Number         0  stm32f1xx_hal_rcc.o ABSOLUTE
    ..\Drivers\STM32F1xx_HAL_Driver\Src\stm32f1xx_hal_rcc_ex.c 0x00000000   Number         0  stm32f1xx_hal_rcc_ex.o ABSOLUTE
    ..\Drivers\STM32F1xx_HAL_Driver\Src\stm32f1xx_hal_tim.c 0x00000000   Number         0  stm32f1xx_hal_tim.o ABSOLUTE
    ..\Drivers\STM32F1xx_HAL_Driver\Src\stm32f1xx_hal_tim_ex.c 0x00000000   Number         0  stm32f1xx_hal_tim_ex.o ABSOLUTE
    ..\Drivers\STM32F1xx_HAL_Driver\Src\stm32f1xx_hal_uart.c 0x00000000   Number         0  stm32f1xx_hal_uart.o ABSOLUTE
    ..\Src\communication.c                   0x00000000   Number         0  communication.o ABSOLUTE
    ..\Src\logic.c                           0x00000000   Number         0  logic.o ABSOLUTE
    ..\Src\main.c                            0x00000000   Number         0  main.o ABSOLUTE
    ..\Src\motion.c                          0x00000000   Number         0  motion.o ABSOLUTE
    ..\Src\motor.c                           0x00000000   Number         0  motor.o ABSOLUTE
    ..\Src\myqueue.c                         0x00000000   Number         0  myqueue.o ABSOLUTE
    ..\Src\sensor.c                          0x00000000   Number         0  sensor.o ABSOLUTE
    ..\Src\stm32f1xx_hal_msp.c               0x00000000   Number         0  stm32f1xx_hal_msp.o ABSOLUTE
    ..\Src\stm32f1xx_it.c                    0x00000000   Number         0  stm32f1xx_it.o ABSOLUTE
    ..\Src\system_stm32f1xx.c                0x00000000   Number         0  system_stm32f1xx.o ABSOLUTE
    ..\\Src\\communication.c                 0x00000000   Number         0  communication.o ABSOLUTE
    ..\\Src\\logic.c                         0x00000000   Number         0  logic.o ABSOLUTE
    ..\\Src\\motor.c                         0x00000000   Number         0  motor.o ABSOLUTE
    ..\\Src\\sensor.c                        0x00000000   Number         0  sensor.o ABSOLUTE
    cdcmple.s                                0x00000000   Number         0  cdcmple.o ABSOLUTE
    cdrcmple.s                               0x00000000   Number         0  cdrcmple.o ABSOLUTE
    dc.s                                     0x00000000   Number         0  dc.o ABSOLUTE
    handlers.s                               0x00000000   Number         0  handlers.o ABSOLUTE
    init.s                                   0x00000000   Number         0  init.o ABSOLUTE
    startup_stm32f103xe.s                    0x00000000   Number         0  startup_stm32f103xe.o ABSOLUTE
    RESET                                    0x08000000   Section      304  startup_stm32f103xe.o(RESET)
    .ARM.Collect$$$$00000000                 0x08000130   Section        0  entry.o(.ARM.Collect$$$$00000000)
    .ARM.Collect$$$$00000001                 0x08000130   Section        4  entry2.o(.ARM.Collect$$$$00000001)
    .ARM.Collect$$$$00000004                 0x08000134   Section        4  entry5.o(.ARM.Collect$$$$00000004)
    .ARM.Collect$$$$00000008                 0x08000138   Section        0  entry7b.o(.ARM.Collect$$$$00000008)
    .ARM.Collect$$$$0000000A                 0x08000138   Section        0  entry8b.o(.ARM.Collect$$$$0000000A)
    .ARM.Collect$$$$0000000B                 0x08000138   Section        8  entry9a.o(.ARM.Collect$$$$0000000B)
    .ARM.Collect$$$$0000000D                 0x08000140   Section        0  entry10a.o(.ARM.Collect$$$$0000000D)
    .ARM.Collect$$$$0000000F                 0x08000140   Section        0  entry11a.o(.ARM.Collect$$$$0000000F)
    .ARM.Collect$$$$00002712                 0x08000140   Section        4  entry2.o(.ARM.Collect$$$$00002712)
    __lit__00000000                          0x08000140   Data           4  entry2.o(.ARM.Collect$$$$00002712)
    .text                                    0x08000144   Section       36  startup_stm32f103xe.o(.text)
    .text                                    0x08000168   Section        0  llushr.o(.text)
    .text                                    0x08000188   Section        0  strlen.o(.text)
    .text                                    0x08000196   Section        0  fadd.o(.text)
    .text                                    0x08000246   Section        0  fmul.o(.text)
    .text                                    0x080002aa   Section        0  fdiv.o(.text)
    .text                                    0x08000326   Section        0  fscalb.o(.text)
    .text                                    0x0800033e   Section        0  ddiv.o(.text)
    .text                                    0x0800041c   Section        0  fflti.o(.text)
    .text                                    0x0800042e   Section        0  ffixi.o(.text)
    .text                                    0x08000460   Section        0  f2d.o(.text)
    .text                                    0x08000486   Section        0  uidiv.o(.text)
    .text                                    0x080004b2   Section        0  uldiv.o(.text)
    .text                                    0x08000514   Section        0  iusefp.o(.text)
    .text                                    0x08000514   Section        0  fepilogue.o(.text)
    .text                                    0x08000582   Section        0  depilogue.o(.text)
    .text                                    0x0800063c   Section        0  dadd.o(.text)
    .text                                    0x0800078a   Section        0  dmul.o(.text)
    .text                                    0x0800086e   Section        0  dfixul.o(.text)
    .text                                    0x080008a0   Section       48  cdrcmple.o(.text)
    .text                                    0x080008d0   Section       36  init.o(.text)
    .text                                    0x080008f4   Section        0  llshl.o(.text)
    .text                                    0x08000912   Section        0  llsshr.o(.text)
    i.BusFault_Handler                       0x08000936   Section        0  stm32f1xx_it.o(i.BusFault_Handler)
    i.DebugMon_Handler                       0x08000938   Section        0  stm32f1xx_it.o(i.DebugMon_Handler)
    i.GAME                                   0x0800093c   Section        0  logic.o(i.GAME)
    i.HAL_DMA_Abort_IT                       0x08000b10   Section        0  stm32f1xx_hal_dma.o(i.HAL_DMA_Abort_IT)
    i.HAL_Delay                              0x08000c40   Section        0  stm32f1xx_hal.o(i.HAL_Delay)
    i.HAL_GPIO_Init                          0x08000c5c   Section        0  stm32f1xx_hal_gpio.o(i.HAL_GPIO_Init)
    i.HAL_GPIO_ReadPin                       0x08000e44   Section        0  stm32f1xx_hal_gpio.o(i.HAL_GPIO_ReadPin)
    i.HAL_GPIO_WritePin                      0x08000e4e   Section        0  stm32f1xx_hal_gpio.o(i.HAL_GPIO_WritePin)
    i.HAL_GetTick                            0x08000e58   Section        0  stm32f1xx_hal.o(i.HAL_GetTick)
    i.HAL_IncTick                            0x08000e64   Section        0  stm32f1xx_hal.o(i.HAL_IncTick)
    i.HAL_Init                               0x08000e74   Section        0  stm32f1xx_hal.o(i.HAL_Init)
    i.HAL_InitTick                           0x08000e98   Section        0  stm32f1xx_hal.o(i.HAL_InitTick)
    i.HAL_MspInit                            0x08000ec0   Section        0  stm32f1xx_hal_msp.o(i.HAL_MspInit)
    i.HAL_NVIC_EnableIRQ                     0x08000f44   Section        0  stm32f1xx_hal_cortex.o(i.HAL_NVIC_EnableIRQ)
    i.HAL_NVIC_SetPriority                   0x08000f5c   Section        0  stm32f1xx_hal_cortex.o(i.HAL_NVIC_SetPriority)
    i.HAL_NVIC_SetPriorityGrouping           0x08000f9c   Section        0  stm32f1xx_hal_cortex.o(i.HAL_NVIC_SetPriorityGrouping)
    i.HAL_RCC_ClockConfig                    0x08000fc0   Section        0  stm32f1xx_hal_rcc.o(i.HAL_RCC_ClockConfig)
    i.HAL_RCC_GetHCLKFreq                    0x08001114   Section        0  stm32f1xx_hal_rcc.o(i.HAL_RCC_GetHCLKFreq)
    i.HAL_RCC_GetPCLK1Freq                   0x08001120   Section        0  stm32f1xx_hal_rcc.o(i.HAL_RCC_GetPCLK1Freq)
    i.HAL_RCC_GetPCLK2Freq                   0x08001140   Section        0  stm32f1xx_hal_rcc.o(i.HAL_RCC_GetPCLK2Freq)
    i.HAL_RCC_GetSysClockFreq                0x08001160   Section        0  stm32f1xx_hal_rcc.o(i.HAL_RCC_GetSysClockFreq)
    i.HAL_RCC_OscConfig                      0x080011cc   Section        0  stm32f1xx_hal_rcc.o(i.HAL_RCC_OscConfig)
    i.HAL_SYSTICK_CLKSourceConfig            0x080014d0   Section        0  stm32f1xx_hal_cortex.o(i.HAL_SYSTICK_CLKSourceConfig)
    i.HAL_SYSTICK_Callback                   0x080014e8   Section        0  stm32f1xx_hal_cortex.o(i.HAL_SYSTICK_Callback)
    i.HAL_SYSTICK_Config                     0x080014ea   Section        0  stm32f1xx_hal_cortex.o(i.HAL_SYSTICK_Config)
    i.HAL_SYSTICK_IRQHandler                 0x08001512   Section        0  stm32f1xx_hal_cortex.o(i.HAL_SYSTICK_IRQHandler)
    i.HAL_TIMEx_ConfigBreakDeadTime          0x0800151a   Section        0  stm32f1xx_hal_tim_ex.o(i.HAL_TIMEx_ConfigBreakDeadTime)
    i.HAL_TIMEx_MasterConfigSynchronization  0x08001574   Section        0  stm32f1xx_hal_tim_ex.o(i.HAL_TIMEx_MasterConfigSynchronization)
    i.HAL_TIM_Base_Start                     0x080015c4   Section        0  stm32f1xx_hal_tim.o(i.HAL_TIM_Base_Start)
    i.HAL_TIM_MspPostInit                    0x080015e0   Section        0  stm32f1xx_hal_msp.o(i.HAL_TIM_MspPostInit)
    i.HAL_TIM_PWM_ConfigChannel              0x08001608   Section        0  stm32f1xx_hal_tim.o(i.HAL_TIM_PWM_ConfigChannel)
    i.HAL_TIM_PWM_Init                       0x080016d8   Section        0  stm32f1xx_hal_tim.o(i.HAL_TIM_PWM_Init)
    i.HAL_TIM_PWM_MspInit                    0x08001710   Section        0  stm32f1xx_hal_msp.o(i.HAL_TIM_PWM_MspInit)
    i.HAL_TIM_PWM_Start                      0x08001738   Section        0  stm32f1xx_hal_tim.o(i.HAL_TIM_PWM_Start)
    i.HAL_UART_ErrorCallback                 0x08001770   Section        0  stm32f1xx_hal_uart.o(i.HAL_UART_ErrorCallback)
    i.HAL_UART_IRQHandler                    0x08001774   Section        0  stm32f1xx_hal_uart.o(i.HAL_UART_IRQHandler)
    i.HAL_UART_Init                          0x08001884   Section        0  stm32f1xx_hal_uart.o(i.HAL_UART_Init)
    i.HAL_UART_MspInit                       0x080018e8   Section        0  stm32f1xx_hal_msp.o(i.HAL_UART_MspInit)
    i.HAL_UART_Receive_IT                    0x080019f4   Section        0  stm32f1xx_hal_uart.o(i.HAL_UART_Receive_IT)
    i.HAL_UART_RxCpltCallback                0x08001a48   Section        0  main.o(i.HAL_UART_RxCpltCallback)
    i.HAL_UART_Transmit                      0x08001bd0   Section        0  stm32f1xx_hal_uart.o(i.HAL_UART_Transmit)
    i.HAL_UART_TxCpltCallback                0x08001c8a   Section        0  stm32f1xx_hal_uart.o(i.HAL_UART_TxCpltCallback)
    i.HardFault_Handler                      0x08001c8c   Section        0  stm32f1xx_it.o(i.HardFault_Handler)
    i.LOGIC_INIT                             0x08001c90   Section        0  logic.o(i.LOGIC_INIT)
    i.MOTION_AHEAD                           0x08001d14   Section        0  motion.o(i.MOTION_AHEAD)
    i.MOTION_STOP                            0x08001d4c   Section        0  motion.o(i.MOTION_STOP)
    i.MOTION_TURN                            0x08001d6c   Section        0  motion.o(i.MOTION_TURN)
    i.MOTOR_GET_COMPARE                      0x08001dc4   Section        0  motor.o(i.MOTOR_GET_COMPARE)
    i.MOTOR_LEFT_AHEAD                       0x08001dd8   Section        0  motor.o(i.MOTOR_LEFT_AHEAD)
    i.MOTOR_LEFT_BACK                        0x08001e08   Section        0  motor.o(i.MOTOR_LEFT_BACK)
    i.MOTOR_LEFT_STOP                        0x08001e38   Section        0  motor.o(i.MOTOR_LEFT_STOP)
    i.MOTOR_RIGHT_AHEAD                      0x08001e58   Section        0  motor.o(i.MOTOR_RIGHT_AHEAD)
    i.MOTOR_RIGHT_BACK                       0x08001e8c   Section        0  motor.o(i.MOTOR_RIGHT_BACK)
    i.MOTOR_RIGHT_STOP                       0x08001ebc   Section        0  motor.o(i.MOTOR_RIGHT_STOP)
    i.MX_GPIO_Init                           0x08001edc   Section        0  main.o(i.MX_GPIO_Init)
    MX_GPIO_Init                             0x08001edd   Thumb Code   230  main.o(i.MX_GPIO_Init)
    i.MX_TIM1_Init                           0x08001fd8   Section        0  main.o(i.MX_TIM1_Init)
    MX_TIM1_Init                             0x08001fd9   Thumb Code   138  main.o(i.MX_TIM1_Init)
    i.MemManage_Handler                      0x0800206c   Section        0  stm32f1xx_it.o(i.MemManage_Handler)
    i.NMI_Handler                            0x0800206e   Section        0  stm32f1xx_it.o(i.NMI_Handler)
    i.NVIC_SetPriority                       0x08002070   Section        0  stm32f1xx_hal_cortex.o(i.NVIC_SetPriority)
    NVIC_SetPriority                         0x08002071   Thumb Code    32  stm32f1xx_hal_cortex.o(i.NVIC_SetPriority)
    i.PendSV_Handler                         0x08002090   Section        0  stm32f1xx_it.o(i.PendSV_Handler)
    i.QUEUE_INIT                             0x08002094   Section        0  myqueue.o(i.QUEUE_INIT)
    i.SENSOR_IR_DATA_INIT                    0x080020d0   Section        0  sensor.o(i.SENSOR_IR_DATA_INIT)
    i.SENSOR_IR_DATA_SEND                    0x08002100   Section        0  sensor.o(i.SENSOR_IR_DATA_SEND)
    i.SENSOR_IR_DATA_UPDATE                  0x080021e8   Section        0  sensor.o(i.SENSOR_IR_DATA_UPDATE)
    i.SENSOR_IR_JUDGE                        0x08002258   Section        0  sensor.o(i.SENSOR_IR_JUDGE)
    i.SENSOR_IR_STATE                        0x0800228c   Section        0  sensor.o(i.SENSOR_IR_STATE)
    i.SENSOR_MPU_INIT                        0x0800234c   Section        0  sensor.o(i.SENSOR_MPU_INIT)
    i.SENSOR_MPU_SEND                        0x08002350   Section        0  sensor.o(i.SENSOR_MPU_SEND)
    i.SENSOR_MPU_UPDATE                      0x080023d0   Section        0  sensor.o(i.SENSOR_MPU_UPDATE)
    i.SVC_Handler                            0x080024c0   Section        0  stm32f1xx_it.o(i.SVC_Handler)
    i.SerialPrintChar                        0x080024c2   Section        0  main.o(i.SerialPrintChar)
    i.SysTick_Handler                        0x080024e0   Section        0  stm32f1xx_it.o(i.SysTick_Handler)
    i.SystemClock_Config                     0x080024ee   Section        0  main.o(i.SystemClock_Config)
    i.SystemInit                             0x08002558   Section        0  system_stm32f1xx.o(i.SystemInit)
    i.TEMP_DECIDE_NEXT_MOVE                  0x080025a0   Section        0  logic.o(i.TEMP_DECIDE_NEXT_MOVE)
    i.TIM_Base_SetConfig                     0x080025c0   Section        0  stm32f1xx_hal_tim.o(i.TIM_Base_SetConfig)
    i.TIM_CCxChannelCmd                      0x0800264c   Section        0  stm32f1xx_hal_tim.o(i.TIM_CCxChannelCmd)
    i.TIM_OC1_SetConfig                      0x08002664   Section        0  stm32f1xx_hal_tim.o(i.TIM_OC1_SetConfig)
    TIM_OC1_SetConfig                        0x08002665   Thumb Code    88  stm32f1xx_hal_tim.o(i.TIM_OC1_SetConfig)
    i.TIM_OC2_SetConfig                      0x080026c4   Section        0  stm32f1xx_hal_tim.o(i.TIM_OC2_SetConfig)
    i.TIM_OC3_SetConfig                      0x08002730   Section        0  stm32f1xx_hal_tim.o(i.TIM_OC3_SetConfig)
    TIM_OC3_SetConfig                        0x08002731   Thumb Code    96  stm32f1xx_hal_tim.o(i.TIM_OC3_SetConfig)
    i.TIM_OC4_SetConfig                      0x08002798   Section        0  stm32f1xx_hal_tim.o(i.TIM_OC4_SetConfig)
    TIM_OC4_SetConfig                        0x08002799   Thumb Code    70  stm32f1xx_hal_tim.o(i.TIM_OC4_SetConfig)
    i.UART_DMAAbortOnError                   0x080027e8   Section        0  stm32f1xx_hal_uart.o(i.UART_DMAAbortOnError)
    UART_DMAAbortOnError                     0x080027e9   Thumb Code    16  stm32f1xx_hal_uart.o(i.UART_DMAAbortOnError)
    i.UART_EndRxTransfer                     0x080027f8   Section        0  stm32f1xx_hal_uart.o(i.UART_EndRxTransfer)
    UART_EndRxTransfer                       0x080027f9   Thumb Code    28  stm32f1xx_hal_uart.o(i.UART_EndRxTransfer)
    i.UART_Receive_IT                        0x08002814   Section        0  stm32f1xx_hal_uart.o(i.UART_Receive_IT)
    UART_Receive_IT                          0x08002815   Thumb Code   150  stm32f1xx_hal_uart.o(i.UART_Receive_IT)
    i.UART_SetConfig                         0x080028ac   Section        0  stm32f1xx_hal_uart.o(i.UART_SetConfig)
    UART_SetConfig                           0x080028ad   Thumb Code   364  stm32f1xx_hal_uart.o(i.UART_SetConfig)
    i.UART_Transmit_IT                       0x08002a1c   Section        0  stm32f1xx_hal_uart.o(i.UART_Transmit_IT)
    UART_Transmit_IT                         0x08002a1d   Thumb Code    98  stm32f1xx_hal_uart.o(i.UART_Transmit_IT)
    i.UART_WaitOnFlagUntilTimeout            0x08002a7e   Section        0  stm32f1xx_hal_uart.o(i.UART_WaitOnFlagUntilTimeout)
    UART_WaitOnFlagUntilTimeout              0x08002a7f   Thumb Code   100  stm32f1xx_hal_uart.o(i.UART_WaitOnFlagUntilTimeout)
    i.USART1_IRQHandler                      0x08002ae4   Section        0  stm32f1xx_it.o(i.USART1_IRQHandler)
    i.USART2_IRQHandler                      0x08002af0   Section        0  stm32f1xx_it.o(i.USART2_IRQHandler)
    i.USART3_IRQHandler                      0x08002afc   Section        0  stm32f1xx_it.o(i.USART3_IRQHandler)
    i.UsageFault_Handler                     0x08002b08   Section        0  stm32f1xx_it.o(i.UsageFault_Handler)
    i.WifiInit                               0x08002b0c   Section        0  main.o(i.WifiInit)
    i.__0sprintf                             0x08002c00   Section        0  printfa.o(i.__0sprintf)
    i.__scatterload_copy                     0x08002c28   Section       14  handlers.o(i.__scatterload_copy)
    i.__scatterload_null                     0x08002c36   Section        2  handlers.o(i.__scatterload_null)
    i.__scatterload_zeroinit                 0x08002c38   Section       14  handlers.o(i.__scatterload_zeroinit)
    i._fp_digits                             0x08002c48   Section        0  printfa.o(i._fp_digits)
    _fp_digits                               0x08002c49   Thumb Code   366  printfa.o(i._fp_digits)
    i._printf_core                           0x08002dcc   Section        0  printfa.o(i._printf_core)
    _printf_core                             0x08002dcd   Thumb Code  1744  printfa.o(i._printf_core)
    i._printf_post_padding                   0x080034a8   Section        0  printfa.o(i._printf_post_padding)
    _printf_post_padding                     0x080034a9   Thumb Code    36  printfa.o(i._printf_post_padding)
    i._printf_pre_padding                    0x080034cc   Section        0  printfa.o(i._printf_pre_padding)
    _printf_pre_padding                      0x080034cd   Thumb Code    46  printfa.o(i._printf_pre_padding)
    i._sputc                                 0x080034fa   Section        0  printfa.o(i._sputc)
    _sputc                                   0x080034fb   Thumb Code    10  printfa.o(i._sputc)
    i.checkbeginning                         0x08003504   Section        0  main.o(i.checkbeginning)
    i.clear                                  0x0800355c   Section        0  myqueue.o(i.clear)
    i.getnum                                 0x0800356c   Section        0  communication.o(i.getnum)
    i.isempty                                0x0800359c   Section        0  myqueue.o(i.isempty)
    i.main                                   0x080035b4   Section        0  main.o(i.main)
    i.message_data                           0x080037d4   Section        0  communication.o(i.message_data)
    i.message_process                        0x08003850   Section        0  communication.o(i.message_process)
    i.normalize                              0x08003bb0   Section        0  logic.o(i.normalize)
    i.pop                                    0x08003bb4   Section        0  myqueue.o(i.pop)
    i.push                                   0x08003be4   Section        0  myqueue.o(i.push)
    i.pushlist                               0x08003c0c   Section        0  myqueue.o(i.pushlist)
    .constdata                               0x08003c44   Section       16  system_stm32f1xx.o(.constdata)
    .constdata                               0x08003c54   Section        8  system_stm32f1xx.o(.constdata)
    .data                                    0x20000000   Section        4  system_stm32f1xx.o(.data)
    .data                                    0x20000004   Section       16  main.o(.data)
    .data                                    0x20000014   Section        1  main.o(.data)
    .data                                    0x20000015   Section        1  motion.o(.data)
    .data                                    0x20000018   Section       32  sensor.o(.data)
    .data                                    0x20000038   Section       48  communication.o(.data)
    .data                                    0x20000068   Section       96  logic.o(.data)
    .data                                    0x200000c8   Section        4  stm32f1xx_hal.o(.data)
    .bss                                     0x200000cc   Section      278  main.o(.bss)
    .bss                                     0x200001e4   Section      320  sensor.o(.bss)
    .bss                                     0x20000324   Section     1752  communication.o(.bss)
    .bss                                     0x200009fc   Section       72  communication.o(.bss)
    .bss                                     0x20000a44   Section      344  myqueue.o(.bss)
    .bss                                     0x20000b9c   Section      412  logic.o(.bss)
    STACK                                    0x20000d38   Section     1024  startup_stm32f103xe.o(STACK)

    Global Symbols

    Symbol Name                              Value     Ov Type        Size  Object(Section)

    BuildAttributes$$THM_ISAv4$P$D$K$B$S$PE$A:L22UL41UL21$X:L11$S22US41US21$IEEE1$IW$USESV6$~STKCKD$USESV7$~SHL$OTIME$ROPI$IEEEX$EBA8$MICROLIB$REQ8$PRES8$EABIv2 0x00000000   Number         0  anon$$obj.o ABSOLUTE
    __ARM_use_no_argv                        0x00000000   Number         0  main.o ABSOLUTE
    _printf_a                                0x00000000   Number         0  stubs.o ABSOLUTE
    _printf_c                                0x00000000   Number         0  stubs.o ABSOLUTE
    _printf_charcount                        0x00000000   Number         0  stubs.o ABSOLUTE
    _printf_d                                0x00000000   Number         0  stubs.o ABSOLUTE
    _printf_e                                0x00000000   Number         0  stubs.o ABSOLUTE
    _printf_f                                0x00000000   Number         0  stubs.o ABSOLUTE
    _printf_flags                            0x00000000   Number         0  stubs.o ABSOLUTE
    _printf_fp_dec                           0x00000000   Number         0  stubs.o ABSOLUTE
    _printf_fp_hex                           0x00000000   Number         0  stubs.o ABSOLUTE
    _printf_g                                0x00000000   Number         0  stubs.o ABSOLUTE
    _printf_i                                0x00000000   Number         0  stubs.o ABSOLUTE
    _printf_int_dec                          0x00000000   Number         0  stubs.o ABSOLUTE
    _printf_l                                0x00000000   Number         0  stubs.o ABSOLUTE
    _printf_lc                               0x00000000   Number         0  stubs.o ABSOLUTE
    _printf_ll                               0x00000000   Number         0  stubs.o ABSOLUTE
    _printf_lld                              0x00000000   Number         0  stubs.o ABSOLUTE
    _printf_lli                              0x00000000   Number         0  stubs.o ABSOLUTE
    _printf_llo                              0x00000000   Number         0  stubs.o ABSOLUTE
    _printf_llu                              0x00000000   Number         0  stubs.o ABSOLUTE
    _printf_llx                              0x00000000   Number         0  stubs.o ABSOLUTE
    _printf_longlong_dec                     0x00000000   Number         0  stubs.o ABSOLUTE
    _printf_longlong_hex                     0x00000000   Number         0  stubs.o ABSOLUTE
    _printf_longlong_oct                     0x00000000   Number         0  stubs.o ABSOLUTE
    _printf_ls                               0x00000000   Number         0  stubs.o ABSOLUTE
    _printf_mbtowc                           0x00000000   Number         0  stubs.o ABSOLUTE
    _printf_n                                0x00000000   Number         0  stubs.o ABSOLUTE
    _printf_o                                0x00000000   Number         0  stubs.o ABSOLUTE
    _printf_p                                0x00000000   Number         0  stubs.o ABSOLUTE
    _printf_percent                          0x00000000   Number         0  stubs.o ABSOLUTE
    _printf_pre_padding                      0x00000000   Number         0  stubs.o ABSOLUTE
    _printf_return_value                     0x00000000   Number         0  stubs.o ABSOLUTE
    _printf_s                                0x00000000   Number         0  stubs.o ABSOLUTE
    _printf_sizespec                         0x00000000   Number         0  stubs.o ABSOLUTE
    _printf_str                              0x00000000   Number         0  stubs.o ABSOLUTE
    _printf_truncate_signed                  0x00000000   Number         0  stubs.o ABSOLUTE
    _printf_truncate_unsigned                0x00000000   Number         0  stubs.o ABSOLUTE
    _printf_u                                0x00000000   Number         0  stubs.o ABSOLUTE
    _printf_wc                               0x00000000   Number         0  stubs.o ABSOLUTE
    _printf_wctomb                           0x00000000   Number         0  stubs.o ABSOLUTE
    _printf_widthprec                        0x00000000   Number         0  stubs.o ABSOLUTE
    _printf_x                                0x00000000   Number         0  stubs.o ABSOLUTE
    __cpp_initialize__aeabi_                  - Undefined Weak Reference
    __cxa_finalize                            - Undefined Weak Reference
    __decompress                              - Undefined Weak Reference
    _clock_init                               - Undefined Weak Reference
    _microlib_exit                            - Undefined Weak Reference
    __Vectors_Size                           0x00000130   Number         0  startup_stm32f103xe.o ABSOLUTE
    __Vectors                                0x08000000   Data           4  startup_stm32f103xe.o(RESET)
    __Vectors_End                            0x08000130   Data           0  startup_stm32f103xe.o(RESET)
    __main                                   0x08000131   Thumb Code     0  entry.o(.ARM.Collect$$$$00000000)
    _main_stk                                0x08000131   Thumb Code     0  entry2.o(.ARM.Collect$$$$00000001)
    _main_scatterload                        0x08000135   Thumb Code     0  entry5.o(.ARM.Collect$$$$00000004)
    __main_after_scatterload                 0x08000139   Thumb Code     0  entry5.o(.ARM.Collect$$$$00000004)
    _main_clock                              0x08000139   Thumb Code     0  entry7b.o(.ARM.Collect$$$$00000008)
    _main_cpp_init                           0x08000139   Thumb Code     0  entry8b.o(.ARM.Collect$$$$0000000A)
    _main_init                               0x08000139   Thumb Code     0  entry9a.o(.ARM.Collect$$$$0000000B)
    __rt_final_cpp                           0x08000141   Thumb Code     0  entry10a.o(.ARM.Collect$$$$0000000D)
    __rt_final_exit                          0x08000141   Thumb Code     0  entry11a.o(.ARM.Collect$$$$0000000F)
    Reset_Handler                            0x08000145   Thumb Code     8  startup_stm32f103xe.o(.text)
    ADC1_2_IRQHandler                        0x0800015f   Thumb Code     0  startup_stm32f103xe.o(.text)
    ADC3_IRQHandler                          0x0800015f   Thumb Code     0  startup_stm32f103xe.o(.text)
    CAN1_RX1_IRQHandler                      0x0800015f   Thumb Code     0  startup_stm32f103xe.o(.text)
    CAN1_SCE_IRQHandler                      0x0800015f   Thumb Code     0  startup_stm32f103xe.o(.text)
    DMA1_Channel1_IRQHandler                 0x0800015f   Thumb Code     0  startup_stm32f103xe.o(.text)
    DMA1_Channel2_IRQHandler                 0x0800015f   Thumb Code     0  startup_stm32f103xe.o(.text)
    DMA1_Channel3_IRQHandler                 0x0800015f   Thumb Code     0  startup_stm32f103xe.o(.text)
    DMA1_Channel4_IRQHandler                 0x0800015f   Thumb Code     0  startup_stm32f103xe.o(.text)
    DMA1_Channel5_IRQHandler                 0x0800015f   Thumb Code     0  startup_stm32f103xe.o(.text)
    DMA1_Channel6_IRQHandler                 0x0800015f   Thumb Code     0  startup_stm32f103xe.o(.text)
    DMA1_Channel7_IRQHandler                 0x0800015f   Thumb Code     0  startup_stm32f103xe.o(.text)
    DMA2_Channel1_IRQHandler                 0x0800015f   Thumb Code     0  startup_stm32f103xe.o(.text)
    DMA2_Channel2_IRQHandler                 0x0800015f   Thumb Code     0  startup_stm32f103xe.o(.text)
    DMA2_Channel3_IRQHandler                 0x0800015f   Thumb Code     0  startup_stm32f103xe.o(.text)
    DMA2_Channel4_5_IRQHandler               0x0800015f   Thumb Code     0  startup_stm32f103xe.o(.text)
    EXTI0_IRQHandler                         0x0800015f   Thumb Code     0  startup_stm32f103xe.o(.text)
    EXTI15_10_IRQHandler                     0x0800015f   Thumb Code     0  startup_stm32f103xe.o(.text)
    EXTI1_IRQHandler                         0x0800015f   Thumb Code     0  startup_stm32f103xe.o(.text)
    EXTI2_IRQHandler                         0x0800015f   Thumb Code     0  startup_stm32f103xe.o(.text)
    EXTI3_IRQHandler                         0x0800015f   Thumb Code     0  startup_stm32f103xe.o(.text)
    EXTI4_IRQHandler                         0x0800015f   Thumb Code     0  startup_stm32f103xe.o(.text)
    EXTI9_5_IRQHandler                       0x0800015f   Thumb Code     0  startup_stm32f103xe.o(.text)
    FLASH_IRQHandler                         0x0800015f   Thumb Code     0  startup_stm32f103xe.o(.text)
    FSMC_IRQHandler                          0x0800015f   Thumb Code     0  startup_stm32f103xe.o(.text)
    I2C1_ER_IRQHandler                       0x0800015f   Thumb Code     0  startup_stm32f103xe.o(.text)
    I2C1_EV_IRQHandler                       0x0800015f   Thumb Code     0  startup_stm32f103xe.o(.text)
    I2C2_ER_IRQHandler                       0x0800015f   Thumb Code     0  startup_stm32f103xe.o(.text)
    I2C2_EV_IRQHandler                       0x0800015f   Thumb Code     0  startup_stm32f103xe.o(.text)
    PVD_IRQHandler                           0x0800015f   Thumb Code     0  startup_stm32f103xe.o(.text)
    RCC_IRQHandler                           0x0800015f   Thumb Code     0  startup_stm32f103xe.o(.text)
    RTC_Alarm_IRQHandler                     0x0800015f   Thumb Code     0  startup_stm32f103xe.o(.text)
    RTC_IRQHandler                           0x0800015f   Thumb Code     0  startup_stm32f103xe.o(.text)
    SDIO_IRQHandler                          0x0800015f   Thumb Code     0  startup_stm32f103xe.o(.text)
    SPI1_IRQHandler                          0x0800015f   Thumb Code     0  startup_stm32f103xe.o(.text)
    SPI2_IRQHandler                          0x0800015f   Thumb Code     0  startup_stm32f103xe.o(.text)
    SPI3_IRQHandler                          0x0800015f   Thumb Code     0  startup_stm32f103xe.o(.text)
    TAMPER_IRQHandler                        0x0800015f   Thumb Code     0  startup_stm32f103xe.o(.text)
    TIM1_BRK_IRQHandler                      0x0800015f   Thumb Code     0  startup_stm32f103xe.o(.text)
    TIM1_CC_IRQHandler                       0x0800015f   Thumb Code     0  startup_stm32f103xe.o(.text)
    TIM1_TRG_COM_IRQHandler                  0x0800015f   Thumb Code     0  startup_stm32f103xe.o(.text)
    TIM1_UP_IRQHandler                       0x0800015f   Thumb Code     0  startup_stm32f103xe.o(.text)
    TIM2_IRQHandler                          0x0800015f   Thumb Code     0  startup_stm32f103xe.o(.text)
    TIM3_IRQHandler                          0x0800015f   Thumb Code     0  startup_stm32f103xe.o(.text)
    TIM4_IRQHandler                          0x0800015f   Thumb Code     0  startup_stm32f103xe.o(.text)
    TIM5_IRQHandler                          0x0800015f   Thumb Code     0  startup_stm32f103xe.o(.text)
    TIM6_IRQHandler                          0x0800015f   Thumb Code     0  startup_stm32f103xe.o(.text)
    TIM7_IRQHandler                          0x0800015f   Thumb Code     0  startup_stm32f103xe.o(.text)
    TIM8_BRK_IRQHandler                      0x0800015f   Thumb Code     0  startup_stm32f103xe.o(.text)
    TIM8_CC_IRQHandler                       0x0800015f   Thumb Code     0  startup_stm32f103xe.o(.text)
    TIM8_TRG_COM_IRQHandler                  0x0800015f   Thumb Code     0  startup_stm32f103xe.o(.text)
    TIM8_UP_IRQHandler                       0x0800015f   Thumb Code     0  startup_stm32f103xe.o(.text)
    UART4_IRQHandler                         0x0800015f   Thumb Code     0  startup_stm32f103xe.o(.text)
    UART5_IRQHandler                         0x0800015f   Thumb Code     0  startup_stm32f103xe.o(.text)
    USBWakeUp_IRQHandler                     0x0800015f   Thumb Code     0  startup_stm32f103xe.o(.text)
    USB_HP_CAN1_TX_IRQHandler                0x0800015f   Thumb Code     0  startup_stm32f103xe.o(.text)
    USB_LP_CAN1_RX0_IRQHandler               0x0800015f   Thumb Code     0  startup_stm32f103xe.o(.text)
    WWDG_IRQHandler                          0x0800015f   Thumb Code     0  startup_stm32f103xe.o(.text)
    __aeabi_llsr                             0x08000169   Thumb Code    32  llushr.o(.text)
    _ll_ushift_r                             0x08000169   Thumb Code     0  llushr.o(.text)
    strlen                                   0x08000189   Thumb Code    14  strlen.o(.text)
    __aeabi_fadd                             0x08000197   Thumb Code   164  fadd.o(.text)
    __aeabi_fsub                             0x0800023b   Thumb Code     6  fadd.o(.text)
    __aeabi_frsub                            0x08000241   Thumb Code     6  fadd.o(.text)
    __aeabi_fmul                             0x08000247   Thumb Code   100  fmul.o(.text)
    __aeabi_fdiv                             0x080002ab   Thumb Code   124  fdiv.o(.text)
    __ARM_scalbnf                            0x08000327   Thumb Code    24  fscalb.o(.text)
    scalbnf                                  0x08000327   Thumb Code     0  fscalb.o(.text)
    __aeabi_ddiv                             0x0800033f   Thumb Code   222  ddiv.o(.text)
    __aeabi_i2f                              0x0800041d   Thumb Code    18  fflti.o(.text)
    __aeabi_f2iz                             0x0800042f   Thumb Code    50  ffixi.o(.text)
    __aeabi_f2d                              0x08000461   Thumb Code    38  f2d.o(.text)
    __aeabi_uidiv                            0x08000487   Thumb Code     0  uidiv.o(.text)
    __aeabi_uidivmod                         0x08000487   Thumb Code    44  uidiv.o(.text)
    __aeabi_uldivmod                         0x080004b3   Thumb Code    98  uldiv.o(.text)
    __I$use$fp                               0x08000515   Thumb Code     0  iusefp.o(.text)
    _float_round                             0x08000515   Thumb Code    18  fepilogue.o(.text)
    _float_epilogue                          0x08000527   Thumb Code    92  fepilogue.o(.text)
    _double_round                            0x08000583   Thumb Code    30  depilogue.o(.text)
    _double_epilogue                         0x080005a1   Thumb Code   156  depilogue.o(.text)
    __aeabi_dadd                             0x0800063d   Thumb Code   322  dadd.o(.text)
    __aeabi_dsub                             0x0800077f   Thumb Code     6  dadd.o(.text)
    __aeabi_drsub                            0x08000785   Thumb Code     6  dadd.o(.text)
    __aeabi_dmul                             0x0800078b   Thumb Code   228  dmul.o(.text)
    __aeabi_d2ulz                            0x0800086f   Thumb Code    48  dfixul.o(.text)
    __aeabi_cdrcmple                         0x080008a1   Thumb Code    48  cdrcmple.o(.text)
    __scatterload                            0x080008d1   Thumb Code    28  init.o(.text)
    __scatterload_rt2                        0x080008d1   Thumb Code     0  init.o(.text)
    __aeabi_llsl                             0x080008f5   Thumb Code    30  llshl.o(.text)
    _ll_shift_l                              0x080008f5   Thumb Code     0  llshl.o(.text)
    __aeabi_lasr                             0x08000913   Thumb Code    36  llsshr.o(.text)
    _ll_sshift_r                             0x08000913   Thumb Code     0  llsshr.o(.text)
    BusFault_Handler                         0x08000937   Thumb Code     2  stm32f1xx_it.o(i.BusFault_Handler)
    DebugMon_Handler                         0x08000939   Thumb Code     2  stm32f1xx_it.o(i.DebugMon_Handler)
    GAME                                     0x0800093d   Thumb Code   386  logic.o(i.GAME)
    HAL_DMA_Abort_IT                         0x08000b11   Thumb Code   296  stm32f1xx_hal_dma.o(i.HAL_DMA_Abort_IT)
    HAL_Delay                                0x08000c41   Thumb Code    28  stm32f1xx_hal.o(i.HAL_Delay)
    HAL_GPIO_Init                            0x08000c5d   Thumb Code   446  stm32f1xx_hal_gpio.o(i.HAL_GPIO_Init)
    HAL_GPIO_ReadPin                         0x08000e45   Thumb Code    10  stm32f1xx_hal_gpio.o(i.HAL_GPIO_ReadPin)
    HAL_GPIO_WritePin                        0x08000e4f   Thumb Code    10  stm32f1xx_hal_gpio.o(i.HAL_GPIO_WritePin)
    HAL_GetTick                              0x08000e59   Thumb Code     6  stm32f1xx_hal.o(i.HAL_GetTick)
    HAL_IncTick                              0x08000e65   Thumb Code    10  stm32f1xx_hal.o(i.HAL_IncTick)
    HAL_Init                                 0x08000e75   Thumb Code    32  stm32f1xx_hal.o(i.HAL_Init)
    HAL_InitTick                             0x08000e99   Thumb Code    34  stm32f1xx_hal.o(i.HAL_InitTick)
    HAL_MspInit                              0x08000ec1   Thumb Code   122  stm32f1xx_hal_msp.o(i.HAL_MspInit)
    HAL_NVIC_EnableIRQ                       0x08000f45   Thumb Code    22  stm32f1xx_hal_cortex.o(i.HAL_NVIC_EnableIRQ)
    HAL_NVIC_SetPriority                     0x08000f5d   Thumb Code    60  stm32f1xx_hal_cortex.o(i.HAL_NVIC_SetPriority)
    HAL_NVIC_SetPriorityGrouping             0x08000f9d   Thumb Code    26  stm32f1xx_hal_cortex.o(i.HAL_NVIC_SetPriorityGrouping)
    HAL_RCC_ClockConfig                      0x08000fc1   Thumb Code   322  stm32f1xx_hal_rcc.o(i.HAL_RCC_ClockConfig)
    HAL_RCC_GetHCLKFreq                      0x08001115   Thumb Code     6  stm32f1xx_hal_rcc.o(i.HAL_RCC_GetHCLKFreq)
    HAL_RCC_GetPCLK1Freq                     0x08001121   Thumb Code    20  stm32f1xx_hal_rcc.o(i.HAL_RCC_GetPCLK1Freq)
    HAL_RCC_GetPCLK2Freq                     0x08001141   Thumb Code    20  stm32f1xx_hal_rcc.o(i.HAL_RCC_GetPCLK2Freq)
    HAL_RCC_GetSysClockFreq                  0x08001161   Thumb Code    74  stm32f1xx_hal_rcc.o(i.HAL_RCC_GetSysClockFreq)
    HAL_RCC_OscConfig                        0x080011cd   Thumb Code   750  stm32f1xx_hal_rcc.o(i.HAL_RCC_OscConfig)
    HAL_SYSTICK_CLKSourceConfig              0x080014d1   Thumb Code    24  stm32f1xx_hal_cortex.o(i.HAL_SYSTICK_CLKSourceConfig)
    HAL_SYSTICK_Callback                     0x080014e9   Thumb Code     2  stm32f1xx_hal_cortex.o(i.HAL_SYSTICK_Callback)
    HAL_SYSTICK_Config                       0x080014eb   Thumb Code    40  stm32f1xx_hal_cortex.o(i.HAL_SYSTICK_Config)
    HAL_SYSTICK_IRQHandler                   0x08001513   Thumb Code     8  stm32f1xx_hal_cortex.o(i.HAL_SYSTICK_IRQHandler)
    HAL_TIMEx_ConfigBreakDeadTime            0x0800151b   Thumb Code    90  stm32f1xx_hal_tim_ex.o(i.HAL_TIMEx_ConfigBreakDeadTime)
    HAL_TIMEx_MasterConfigSynchronization    0x08001575   Thumb Code    80  stm32f1xx_hal_tim_ex.o(i.HAL_TIMEx_MasterConfigSynchronization)
    HAL_TIM_Base_Start                       0x080015c5   Thumb Code    26  stm32f1xx_hal_tim.o(i.HAL_TIM_Base_Start)
    HAL_TIM_MspPostInit                      0x080015e1   Thumb Code    32  stm32f1xx_hal_msp.o(i.HAL_TIM_MspPostInit)
    HAL_TIM_PWM_ConfigChannel                0x08001609   Thumb Code   208  stm32f1xx_hal_tim.o(i.HAL_TIM_PWM_ConfigChannel)
    HAL_TIM_PWM_Init                         0x080016d9   Thumb Code    54  stm32f1xx_hal_tim.o(i.HAL_TIM_PWM_Init)
    HAL_TIM_PWM_MspInit                      0x08001711   Thumb Code    30  stm32f1xx_hal_msp.o(i.HAL_TIM_PWM_MspInit)
    HAL_TIM_PWM_Start                        0x08001739   Thumb Code    48  stm32f1xx_hal_tim.o(i.HAL_TIM_PWM_Start)
    HAL_UART_ErrorCallback                   0x08001771   Thumb Code     2  stm32f1xx_hal_uart.o(i.HAL_UART_ErrorCallback)
    HAL_UART_IRQHandler                      0x08001775   Thumb Code   266  stm32f1xx_hal_uart.o(i.HAL_UART_IRQHandler)
    HAL_UART_Init                            0x08001885   Thumb Code    98  stm32f1xx_hal_uart.o(i.HAL_UART_Init)
    HAL_UART_MspInit                         0x080018e9   Thumb Code   238  stm32f1xx_hal_msp.o(i.HAL_UART_MspInit)
    HAL_UART_Receive_IT                      0x080019f5   Thumb Code    82  stm32f1xx_hal_uart.o(i.HAL_UART_Receive_IT)
    HAL_UART_RxCpltCallback                  0x08001a49   Thumb Code   350  main.o(i.HAL_UART_RxCpltCallback)
    HAL_UART_Transmit                        0x08001bd1   Thumb Code   186  stm32f1xx_hal_uart.o(i.HAL_UART_Transmit)
    HAL_UART_TxCpltCallback                  0x08001c8b   Thumb Code     2  stm32f1xx_hal_uart.o(i.HAL_UART_TxCpltCallback)
    HardFault_Handler                        0x08001c8d   Thumb Code     2  stm32f1xx_it.o(i.HardFault_Handler)
    LOGIC_INIT                               0x08001c91   Thumb Code    94  logic.o(i.LOGIC_INIT)
    MOTION_AHEAD                             0x08001d15   Thumb Code    50  motion.o(i.MOTION_AHEAD)
    MOTION_STOP                              0x08001d4d   Thumb Code    26  motion.o(i.MOTION_STOP)
    MOTION_TURN                              0x08001d6d   Thumb Code    84  motion.o(i.MOTION_TURN)
    MOTOR_GET_COMPARE                        0x08001dc5   Thumb Code    16  motor.o(i.MOTOR_GET_COMPARE)
    MOTOR_LEFT_AHEAD                         0x08001dd9   Thumb Code    40  motor.o(i.MOTOR_LEFT_AHEAD)
    MOTOR_LEFT_BACK                          0x08001e09   Thumb Code    40  motor.o(i.MOTOR_LEFT_BACK)
    MOTOR_LEFT_STOP                          0x08001e39   Thumb Code    28  motor.o(i.MOTOR_LEFT_STOP)
    MOTOR_RIGHT_AHEAD                        0x08001e59   Thumb Code    42  motor.o(i.MOTOR_RIGHT_AHEAD)
    MOTOR_RIGHT_BACK                         0x08001e8d   Thumb Code    40  motor.o(i.MOTOR_RIGHT_BACK)
    MOTOR_RIGHT_STOP                         0x08001ebd   Thumb Code    28  motor.o(i.MOTOR_RIGHT_STOP)
    MemManage_Handler                        0x0800206d   Thumb Code     2  stm32f1xx_it.o(i.MemManage_Handler)
    NMI_Handler                              0x0800206f   Thumb Code     2  stm32f1xx_it.o(i.NMI_Handler)
    PendSV_Handler                           0x08002091   Thumb Code     2  stm32f1xx_it.o(i.PendSV_Handler)
    QUEUE_INIT                               0x08002095   Thumb Code    36  myqueue.o(i.QUEUE_INIT)
    SENSOR_IR_DATA_INIT                      0x080020d1   Thumb Code    44  sensor.o(i.SENSOR_IR_DATA_INIT)
    SENSOR_IR_DATA_SEND                      0x08002101   Thumb Code   156  sensor.o(i.SENSOR_IR_DATA_SEND)
    SENSOR_IR_DATA_UPDATE                    0x080021e9   Thumb Code    94  sensor.o(i.SENSOR_IR_DATA_UPDATE)
    SENSOR_IR_JUDGE                          0x08002259   Thumb Code    46  sensor.o(i.SENSOR_IR_JUDGE)
    SENSOR_IR_STATE                          0x0800228d   Thumb Code   182  sensor.o(i.SENSOR_IR_STATE)
    SENSOR_MPU_INIT                          0x0800234d   Thumb Code     2  sensor.o(i.SENSOR_MPU_INIT)
    SENSOR_MPU_SEND                          0x08002351   Thumb Code    86  sensor.o(i.SENSOR_MPU_SEND)
    SENSOR_MPU_UPDATE                        0x080023d1   Thumb Code   214  sensor.o(i.SENSOR_MPU_UPDATE)
    SVC_Handler                              0x080024c1   Thumb Code     2  stm32f1xx_it.o(i.SVC_Handler)
    SerialPrintChar                          0x080024c3   Thumb Code    30  main.o(i.SerialPrintChar)
    SysTick_Handler                          0x080024e1   Thumb Code    14  stm32f1xx_it.o(i.SysTick_Handler)
    SystemClock_Config                       0x080024ef   Thumb Code   104  main.o(i.SystemClock_Config)
    SystemInit                               0x08002559   Thumb Code    56  system_stm32f1xx.o(i.SystemInit)
    TEMP_DECIDE_NEXT_MOVE                    0x080025a1   Thumb Code    26  logic.o(i.TEMP_DECIDE_NEXT_MOVE)
    TIM_Base_SetConfig                       0x080025c1   Thumb Code   120  stm32f1xx_hal_tim.o(i.TIM_Base_SetConfig)
    TIM_CCxChannelCmd                        0x0800264d   Thumb Code    22  stm32f1xx_hal_tim.o(i.TIM_CCxChannelCmd)
    TIM_OC2_SetConfig                        0x080026c5   Thumb Code    98  stm32f1xx_hal_tim.o(i.TIM_OC2_SetConfig)
    USART1_IRQHandler                        0x08002ae5   Thumb Code     6  stm32f1xx_it.o(i.USART1_IRQHandler)
    USART2_IRQHandler                        0x08002af1   Thumb Code     6  stm32f1xx_it.o(i.USART2_IRQHandler)
    USART3_IRQHandler                        0x08002afd   Thumb Code     6  stm32f1xx_it.o(i.USART3_IRQHandler)
    UsageFault_Handler                       0x08002b09   Thumb Code     2  stm32f1xx_it.o(i.UsageFault_Handler)
    WifiInit                                 0x08002b0d   Thumb Code   118  main.o(i.WifiInit)
    __0sprintf                               0x08002c01   Thumb Code    34  printfa.o(i.__0sprintf)
    __1sprintf                               0x08002c01   Thumb Code     0  printfa.o(i.__0sprintf)
    __2sprintf                               0x08002c01   Thumb Code     0  printfa.o(i.__0sprintf)
    __c89sprintf                             0x08002c01   Thumb Code     0  printfa.o(i.__0sprintf)
    sprintf                                  0x08002c01   Thumb Code     0  printfa.o(i.__0sprintf)
    __scatterload_copy                       0x08002c29   Thumb Code    14  handlers.o(i.__scatterload_copy)
    __scatterload_null                       0x08002c37   Thumb Code     2  handlers.o(i.__scatterload_null)
    __scatterload_zeroinit                   0x08002c39   Thumb Code    14  handlers.o(i.__scatterload_zeroinit)
    checkbeginning                           0x08003505   Thumb Code    78  main.o(i.checkbeginning)
    clear                                    0x0800355d   Thumb Code    10  myqueue.o(i.clear)
    getnum                                   0x0800356d   Thumb Code    40  communication.o(i.getnum)
    isempty                                  0x0800359d   Thumb Code    18  myqueue.o(i.isempty)
    main                                     0x080035b5   Thumb Code   486  main.o(i.main)
    message_data                             0x080037d5   Thumb Code    74  communication.o(i.message_data)
    message_process                          0x08003851   Thumb Code   854  communication.o(i.message_process)
    normalize                                0x08003bb1   Thumb Code     2  logic.o(i.normalize)
    pop                                      0x08003bb5   Thumb Code    44  myqueue.o(i.pop)
    push                                     0x08003be5   Thumb Code    34  myqueue.o(i.push)
    pushlist                                 0x08003c0d   Thumb Code    52  myqueue.o(i.pushlist)
    AHBPrescTable                            0x08003c44   Data          16  system_stm32f1xx.o(.constdata)
    APBPrescTable                            0x08003c54   Data           8  system_stm32f1xx.o(.constdata)
    Region$$Table$$Base                      0x08003c5c   Number         0  anon$$obj.o(Region$$Table)
    Region$$Table$$Limit                     0x08003c7c   Number         0  anon$$obj.o(Region$$Table)
    SystemCoreClock                          0x20000000   Data           4  system_stm32f1xx.o(.data)
    U3Rx_len                                 0x20000004   Data           1  main.o(.data)
    U2Rx_len                                 0x20000005   Data           1  main.o(.data)
    state                                    0x20000006   Data           1  main.o(.data)
    U3Rx                                     0x20000007   Data           1  main.o(.data)
    U2Rx                                     0x20000008   Data           1  main.o(.data)
    cnt                                      0x2000000c   Data           4  main.o(.data)
    message_index                            0x20000010   Data           4  main.o(.data)
    U1Rx_len                                 0x20000014   Data           1  main.o(.data)
    DIRECTION                                0x20000015   Data           1  motion.o(.data)
    mpu_state                                0x20000018   Data           1  sensor.o(.data)
    SENSOR_IR_INDEX                          0x2000001c   Data           4  sensor.o(.data)
    SENSOR_ANGLE_X                           0x20000020   Data           4  sensor.o(.data)
    SENSOR_ANGLE_Y                           0x20000024   Data           4  sensor.o(.data)
    SENSOR_ANGLE_Z                           0x20000028   Data           4  sensor.o(.data)
    SENSOR_ANGLE_AC_X                        0x2000002c   Data           4  sensor.o(.data)
    SENSOR_ANGLE_AC_Y                        0x20000030   Data           4  sensor.o(.data)
    SENSOR_ANGLE_AC_Z                        0x20000034   Data           4  sensor.o(.data)
    game_status                              0x20000038   Data           1  communication.o(.data)
    carrierA_index                           0x2000003c   Data           4  communication.o(.data)
    carrierB_index                           0x20000040   Data           4  communication.o(.data)
    passenger_num                            0x20000044   Data           4  communication.o(.data)
    round_num                                0x20000048   Data           4  communication.o(.data)
    tmp                                      0x2000004c   Data           4  communication.o(.data)
    passenger_status                         0x20000050   Data           5  communication.o(.data)
    score                                    0x20000058   Data           8  communication.o(.data)
    foultimes                                0x20000060   Data           8  communication.o(.data)
    PASSENGER_NONE                           0x20000068   Data           1  logic.o(.data)
    ATHOME                                   0x20000069   Data           1  logic.o(.data)
    popflag                                  0x2000006a   Data           1  logic.o(.data)
    walkorturn                               0x2000006b   Data           1  logic.o(.data)
    FirstFlag                                0x2000006c   Data           1  logic.o(.data)
    Pre_Error_index                          0x2000006d   Data           1  logic.o(.data)
    side                                     0x2000006e   Data           1  logic.o(.data)
    PASSENGER_ME                             0x2000006f   Data           1  logic.o(.data)
    PASSENGER_ENEMY                          0x20000070   Data           1  logic.o(.data)
    HAVE_PASSENGER                           0x20000071   Data           1  logic.o(.data)
    PASSENGER_ID                             0x20000072   Data           1  logic.o(.data)
    PASSENGER_START_AREA                     0x20000073   Data           1  logic.o(.data)
    PASSENGER_END_AREA                       0x20000074   Data           1  logic.o(.data)
    AREA_LIST_INDEX                          0x20000075   Data           1  logic.o(.data)
    CUR_NODE                                 0x20000076   Data           1  logic.o(.data)
    direction                                0x20000077   Data           1  logic.o(.data)
    time                                     0x20000078   Data           4  logic.o(.data)
    pwm_left                                 0x2000007c   Data           4  logic.o(.data)
    pwm_right                                0x20000080   Data           4  logic.o(.data)
    I_Error                                  0x20000084   Data           4  logic.o(.data)
    D_Error                                  0x20000088   Data           4  logic.o(.data)
    POS_ENEMY                                0x2000008c   Data           4  logic.o(.data)
    POS_ME                                   0x20000090   Data           4  logic.o(.data)
    POS_ENEMY_INDEX                          0x20000094   Data           4  logic.o(.data)
    POS_ME_INDEX                             0x20000098   Data           4  logic.o(.data)
    offset                                   0x2000009c   Data           4  logic.o(.data)
    PASSENGER_START_AREA_LIST                0x200000a0   Data           5  logic.o(.data)
    PASSENGER_END_AREA_LIST                  0x200000a5   Data           5  logic.o(.data)
    ROAD_DIS                                 0x200000aa   Data          12  logic.o(.data)
    curact                                   0x200000b8   Data          16  logic.o(.data)
    uwTick                                   0x200000c8   Data           4  stm32f1xx_hal.o(.data)
    htim1                                    0x200000cc   Data          64  main.o(.bss)
    huart1                                   0x2000010c   Data          64  main.o(.bss)
    huart2                                   0x2000014c   Data          64  main.o(.bss)
    huart3                                   0x2000018c   Data          64  main.o(.bss)
    U1Rx                                     0x200001cc   Data          22  main.o(.bss)
    SENSOR_IR_LEFT_FRONT                     0x200001e4   Data          80  sensor.o(.bss)
    SENSOR_IR_RIGHT_FRONT                    0x20000234   Data          80  sensor.o(.bss)
    SENSOR_IR_LEFT_BACK                      0x20000284   Data          80  sensor.o(.bss)
    SENSOR_IR_RIGHT_BACK                     0x200002d4   Data          80  sensor.o(.bss)
    carrierA                                 0x20000324   Data         800  communication.o(.bss)
    carrierB                                 0x20000644   Data         800  communication.o(.bss)
    passenger_st                             0x20000964   Data          40  communication.o(.bss)
    passenger_ed                             0x2000098c   Data          40  communication.o(.bss)
    messageReceive                           0x200009b4   Data          72  communication.o(.bss)
    whole_message                            0x200009fc   Data          72  communication.o(.bss)
    STATE_LIST                               0x20000a44   Data         344  myqueue.o(.bss)
    AREA_LIST                                0x20000b9c   Data          10  logic.o(.bss)
    Pre_Error                                0x20000ba8   Data         400  logic.o(.bss)
    __initial_sp                             0x20001138   Data           0  startup_stm32f103xe.o(STACK)



==============================================================================

Memory Map of the image

  Image Entry point : 0x08000131

  Load Region LR_IROM1 (Base: 0x08000000, Size: 0x00003d48, Max: 0x00040000, ABSOLUTE)

    Execution Region ER_IROM1 (Exec base: 0x08000000, Load base: 0x08000000, Size: 0x00003c7c, Max: 0x00040000, ABSOLUTE)

    Exec Addr    Load Addr    Size         Type   Attr      Idx    E Section Name        Object

    0x08000000   0x08000000   0x00000130   Data   RO            3    RESET               startup_stm32f103xe.o
    0x08000130   0x08000130   0x00000000   Code   RO         2867  * .ARM.Collect$$$$00000000  mc_w.l(entry.o)
    0x08000130   0x08000130   0x00000004   Code   RO         3180    .ARM.Collect$$$$00000001  mc_w.l(entry2.o)
    0x08000134   0x08000134   0x00000004   Code   RO         3183    .ARM.Collect$$$$00000004  mc_w.l(entry5.o)
    0x08000138   0x08000138   0x00000000   Code   RO         3185    .ARM.Collect$$$$00000008  mc_w.l(entry7b.o)
    0x08000138   0x08000138   0x00000000   Code   RO         3187    .ARM.Collect$$$$0000000A  mc_w.l(entry8b.o)
    0x08000138   0x08000138   0x00000008   Code   RO         3188    .ARM.Collect$$$$0000000B  mc_w.l(entry9a.o)
    0x08000140   0x08000140   0x00000000   Code   RO         3190    .ARM.Collect$$$$0000000D  mc_w.l(entry10a.o)
    0x08000140   0x08000140   0x00000000   Code   RO         3192    .ARM.Collect$$$$0000000F  mc_w.l(entry11a.o)
    0x08000140   0x08000140   0x00000004   Code   RO         3181    .ARM.Collect$$$$00002712  mc_w.l(entry2.o)
    0x08000144   0x08000144   0x00000024   Code   RO            4    .text               startup_stm32f103xe.o
    0x08000168   0x08000168   0x00000020   Code   RO         2870    .text               mc_w.l(llushr.o)
    0x08000188   0x08000188   0x0000000e   Code   RO         2872    .text               mc_w.l(strlen.o)
    0x08000196   0x08000196   0x000000b0   Code   RO         3135    .text               mf_w.l(fadd.o)
    0x08000246   0x08000246   0x00000064   Code   RO         3137    .text               mf_w.l(fmul.o)
    0x080002aa   0x080002aa   0x0000007c   Code   RO         3139    .text               mf_w.l(fdiv.o)
    0x08000326   0x08000326   0x00000018   Code   RO         3141    .text               mf_w.l(fscalb.o)
    0x0800033e   0x0800033e   0x000000de   Code   RO         3143    .text               mf_w.l(ddiv.o)
    0x0800041c   0x0800041c   0x00000012   Code   RO         3145    .text               mf_w.l(fflti.o)
    0x0800042e   0x0800042e   0x00000032   Code   RO         3149    .text               mf_w.l(ffixi.o)
    0x08000460   0x08000460   0x00000026   Code   RO         3151    .text               mf_w.l(f2d.o)
    0x08000486   0x08000486   0x0000002c   Code   RO         3197    .text               mc_w.l(uidiv.o)
    0x080004b2   0x080004b2   0x00000062   Code   RO         3199    .text               mc_w.l(uldiv.o)
    0x08000514   0x08000514   0x00000000   Code   RO         3208    .text               mc_w.l(iusefp.o)
    0x08000514   0x08000514   0x0000006e   Code   RO         3209    .text               mf_w.l(fepilogue.o)
    0x08000582   0x08000582   0x000000ba   Code   RO         3211    .text               mf_w.l(depilogue.o)
    0x0800063c   0x0800063c   0x0000014e   Code   RO         3213    .text               mf_w.l(dadd.o)
    0x0800078a   0x0800078a   0x000000e4   Code   RO         3215    .text               mf_w.l(dmul.o)
    0x0800086e   0x0800086e   0x00000030   Code   RO         3219    .text               mf_w.l(dfixul.o)
    0x0800089e   0x0800089e   0x00000002   PAD
    0x080008a0   0x080008a0   0x00000030   Code   RO         3223    .text               mf_w.l(cdrcmple.o)
    0x080008d0   0x080008d0   0x00000024   Code   RO         3229    .text               mc_w.l(init.o)
    0x080008f4   0x080008f4   0x0000001e   Code   RO         3232    .text               mc_w.l(llshl.o)
    0x08000912   0x08000912   0x00000024   Code   RO         3234    .text               mc_w.l(llsshr.o)
    0x08000936   0x08000936   0x00000002   Code   RO          233    i.BusFault_Handler  stm32f1xx_it.o
    0x08000938   0x08000938   0x00000002   Code   RO          234    i.DebugMon_Handler  stm32f1xx_it.o
    0x0800093a   0x0800093a   0x00000002   PAD
    0x0800093c   0x0800093c   0x000001d4   Code   RO          651    i.GAME              logic.o
    0x08000b10   0x08000b10   0x00000130   Code   RO         2435    i.HAL_DMA_Abort_IT  stm32f1xx_hal_dma.o
    0x08000c40   0x08000c40   0x0000001c   Code   RO         2148    i.HAL_Delay         stm32f1xx_hal.o
    0x08000c5c   0x08000c5c   0x000001e8   Code   RO         2285    i.HAL_GPIO_Init     stm32f1xx_hal_gpio.o
    0x08000e44   0x08000e44   0x0000000a   Code   RO         2287    i.HAL_GPIO_ReadPin  stm32f1xx_hal_gpio.o
    0x08000e4e   0x08000e4e   0x0000000a   Code   RO         2289    i.HAL_GPIO_WritePin  stm32f1xx_hal_gpio.o
    0x08000e58   0x08000e58   0x0000000c   Code   RO         2152    i.HAL_GetTick       stm32f1xx_hal.o
    0x08000e64   0x08000e64   0x00000010   Code   RO         2154    i.HAL_IncTick       stm32f1xx_hal.o
    0x08000e74   0x08000e74   0x00000024   Code   RO         2155    i.HAL_Init          stm32f1xx_hal.o
    0x08000e98   0x08000e98   0x00000028   Code   RO         2156    i.HAL_InitTick      stm32f1xx_hal.o
    0x08000ec0   0x08000ec0   0x00000084   Code   RO          327    i.HAL_MspInit       stm32f1xx_hal_msp.o
    0x08000f44   0x08000f44   0x00000016   Code   RO         1924    i.HAL_NVIC_EnableIRQ  stm32f1xx_hal_cortex.o
    0x08000f5a   0x08000f5a   0x00000002   PAD
    0x08000f5c   0x08000f5c   0x00000040   Code   RO         1930    i.HAL_NVIC_SetPriority  stm32f1xx_hal_cortex.o
    0x08000f9c   0x08000f9c   0x00000024   Code   RO         1931    i.HAL_NVIC_SetPriorityGrouping  stm32f1xx_hal_cortex.o
    0x08000fc0   0x08000fc0   0x00000154   Code   RO         2040    i.HAL_RCC_ClockConfig  stm32f1xx_hal_rcc.o
    0x08001114   0x08001114   0x0000000c   Code   RO         2045    i.HAL_RCC_GetHCLKFreq  stm32f1xx_hal_rcc.o
    0x08001120   0x08001120   0x00000020   Code   RO         2047    i.HAL_RCC_GetPCLK1Freq  stm32f1xx_hal_rcc.o
    0x08001140   0x08001140   0x00000020   Code   RO         2048    i.HAL_RCC_GetPCLK2Freq  stm32f1xx_hal_rcc.o
    0x08001160   0x08001160   0x0000006c   Code   RO         2049    i.HAL_RCC_GetSysClockFreq  stm32f1xx_hal_rcc.o
    0x080011cc   0x080011cc   0x00000304   Code   RO         2052    i.HAL_RCC_OscConfig  stm32f1xx_hal_rcc.o
    0x080014d0   0x080014d0   0x00000018   Code   RO         1933    i.HAL_SYSTICK_CLKSourceConfig  stm32f1xx_hal_cortex.o
    0x080014e8   0x080014e8   0x00000002   Code   RO         1934    i.HAL_SYSTICK_Callback  stm32f1xx_hal_cortex.o
    0x080014ea   0x080014ea   0x00000028   Code   RO         1935    i.HAL_SYSTICK_Config  stm32f1xx_hal_cortex.o
    0x08001512   0x08001512   0x00000008   Code   RO         1936    i.HAL_SYSTICK_IRQHandler  stm32f1xx_hal_cortex.o
    0x0800151a   0x0800151a   0x0000005a   Code   RO         1655    i.HAL_TIMEx_ConfigBreakDeadTime  stm32f1xx_hal_tim_ex.o
    0x08001574   0x08001574   0x00000050   Code   RO         1670    i.HAL_TIMEx_MasterConfigSynchronization  stm32f1xx_hal_tim_ex.o
    0x080015c4   0x080015c4   0x0000001a   Code   RO         1027    i.HAL_TIM_Base_Start  stm32f1xx_hal_tim.o
    0x080015de   0x080015de   0x00000002   PAD
    0x080015e0   0x080015e0   0x00000028   Code   RO          328    i.HAL_TIM_MspPostInit  stm32f1xx_hal_msp.o
    0x08001608   0x08001608   0x000000d0   Code   RO         1090    i.HAL_TIM_PWM_ConfigChannel  stm32f1xx_hal_tim.o
    0x080016d8   0x080016d8   0x00000036   Code   RO         1093    i.HAL_TIM_PWM_Init  stm32f1xx_hal_tim.o
    0x0800170e   0x0800170e   0x00000002   PAD
    0x08001710   0x08001710   0x00000028   Code   RO          330    i.HAL_TIM_PWM_MspInit  stm32f1xx_hal_msp.o
    0x08001738   0x08001738   0x00000038   Code   RO         1097    i.HAL_TIM_PWM_Start  stm32f1xx_hal_tim.o
    0x08001770   0x08001770   0x00000002   Code   RO         2549    i.HAL_UART_ErrorCallback  stm32f1xx_hal_uart.o
    0x08001772   0x08001772   0x00000002   PAD
    0x08001774   0x08001774   0x00000110   Code   RO         2552    i.HAL_UART_IRQHandler  stm32f1xx_hal_uart.o
    0x08001884   0x08001884   0x00000062   Code   RO         2553    i.HAL_UART_Init     stm32f1xx_hal_uart.o
    0x080018e6   0x080018e6   0x00000002   PAD
    0x080018e8   0x080018e8   0x0000010c   Code   RO          332    i.HAL_UART_MspInit  stm32f1xx_hal_msp.o
    0x080019f4   0x080019f4   0x00000052   Code   RO         2558    i.HAL_UART_Receive_IT  stm32f1xx_hal_uart.o
    0x08001a46   0x08001a46   0x00000002   PAD
    0x08001a48   0x08001a48   0x00000188   Code   RO          129    i.HAL_UART_RxCpltCallback  main.o
    0x08001bd0   0x08001bd0   0x000000ba   Code   RO         2561    i.HAL_UART_Transmit  stm32f1xx_hal_uart.o
    0x08001c8a   0x08001c8a   0x00000002   Code   RO         2564    i.HAL_UART_TxCpltCallback  stm32f1xx_hal_uart.o
    0x08001c8c   0x08001c8c   0x00000002   Code   RO          235    i.HardFault_Handler  stm32f1xx_it.o
    0x08001c8e   0x08001c8e   0x00000002   PAD
    0x08001c90   0x08001c90   0x00000084   Code   RO          654    i.LOGIC_INIT        logic.o
    0x08001d14   0x08001d14   0x00000038   Code   RO          378    i.MOTION_AHEAD      motion.o
    0x08001d4c   0x08001d4c   0x00000020   Code   RO          381    i.MOTION_STOP       motion.o
    0x08001d6c   0x08001d6c   0x00000058   Code   RO          382    i.MOTION_TURN       motion.o
    0x08001dc4   0x08001dc4   0x00000014   Code   RO          423    i.MOTOR_GET_COMPARE  motor.o
    0x08001dd8   0x08001dd8   0x00000030   Code   RO          424    i.MOTOR_LEFT_AHEAD  motor.o
    0x08001e08   0x08001e08   0x00000030   Code   RO          425    i.MOTOR_LEFT_BACK   motor.o
    0x08001e38   0x08001e38   0x00000020   Code   RO          426    i.MOTOR_LEFT_STOP   motor.o
    0x08001e58   0x08001e58   0x00000034   Code   RO          427    i.MOTOR_RIGHT_AHEAD  motor.o
    0x08001e8c   0x08001e8c   0x00000030   Code   RO          428    i.MOTOR_RIGHT_BACK  motor.o
    0x08001ebc   0x08001ebc   0x00000020   Code   RO          429    i.MOTOR_RIGHT_STOP  motor.o
    0x08001edc   0x08001edc   0x000000fc   Code   RO          130    i.MX_GPIO_Init      main.o
    0x08001fd8   0x08001fd8   0x00000094   Code   RO          131    i.MX_TIM1_Init      main.o
    0x0800206c   0x0800206c   0x00000002   Code   RO          236    i.MemManage_Handler  stm32f1xx_it.o
    0x0800206e   0x0800206e   0x00000002   Code   RO          237    i.NMI_Handler       stm32f1xx_it.o
    0x08002070   0x08002070   0x00000020   Code   RO         1937    i.NVIC_SetPriority  stm32f1xx_hal_cortex.o
    0x08002090   0x08002090   0x00000002   Code   RO          238    i.PendSV_Handler    stm32f1xx_it.o
    0x08002092   0x08002092   0x00000002   PAD
    0x08002094   0x08002094   0x0000003c   Code   RO          598    i.QUEUE_INIT        myqueue.o
    0x080020d0   0x080020d0   0x00000030   Code   RO          483    i.SENSOR_IR_DATA_INIT  sensor.o
    0x08002100   0x08002100   0x000000e8   Code   RO          484    i.SENSOR_IR_DATA_SEND  sensor.o
    0x080021e8   0x080021e8   0x00000070   Code   RO          485    i.SENSOR_IR_DATA_UPDATE  sensor.o
    0x08002258   0x08002258   0x00000034   Code   RO          486    i.SENSOR_IR_JUDGE   sensor.o
    0x0800228c   0x0800228c   0x000000c0   Code   RO          487    i.SENSOR_IR_STATE   sensor.o
    0x0800234c   0x0800234c   0x00000002   Code   RO          488    i.SENSOR_MPU_INIT   sensor.o
    0x0800234e   0x0800234e   0x00000002   PAD
    0x08002350   0x08002350   0x00000080   Code   RO          489    i.SENSOR_MPU_SEND   sensor.o
    0x080023d0   0x080023d0   0x000000f0   Code   RO          490    i.SENSOR_MPU_UPDATE  sensor.o
    0x080024c0   0x080024c0   0x00000002   Code   RO          239    i.SVC_Handler       stm32f1xx_it.o
    0x080024c2   0x080024c2   0x0000001e   Code   RO          132    i.SerialPrintChar   main.o
    0x080024e0   0x080024e0   0x0000000e   Code   RO          240    i.SysTick_Handler   stm32f1xx_it.o
    0x080024ee   0x080024ee   0x00000068   Code   RO          133    i.SystemClock_Config  main.o
    0x08002556   0x08002556   0x00000002   PAD
    0x08002558   0x08002558   0x00000048   Code   RO           14    i.SystemInit        system_stm32f1xx.o
    0x080025a0   0x080025a0   0x00000020   Code   RO          656    i.TEMP_DECIDE_NEXT_MOVE  logic.o
    0x080025c0   0x080025c0   0x0000008c   Code   RO         1108    i.TIM_Base_SetConfig  stm32f1xx_hal_tim.o
    0x0800264c   0x0800264c   0x00000016   Code   RO         1109    i.TIM_CCxChannelCmd  stm32f1xx_hal_tim.o
    0x08002662   0x08002662   0x00000002   PAD
    0x08002664   0x08002664   0x00000060   Code   RO         1117    i.TIM_OC1_SetConfig  stm32f1xx_hal_tim.o
    0x080026c4   0x080026c4   0x0000006c   Code   RO         1118    i.TIM_OC2_SetConfig  stm32f1xx_hal_tim.o
    0x08002730   0x08002730   0x00000068   Code   RO         1119    i.TIM_OC3_SetConfig  stm32f1xx_hal_tim.o
    0x08002798   0x08002798   0x00000050   Code   RO         1120    i.TIM_OC4_SetConfig  stm32f1xx_hal_tim.o
    0x080027e8   0x080027e8   0x00000010   Code   RO         2566    i.UART_DMAAbortOnError  stm32f1xx_hal_uart.o
    0x080027f8   0x080027f8   0x0000001c   Code   RO         2576    i.UART_EndRxTransfer  stm32f1xx_hal_uart.o
    0x08002814   0x08002814   0x00000096   Code   RO         2578    i.UART_Receive_IT   stm32f1xx_hal_uart.o
    0x080028aa   0x080028aa   0x00000002   PAD
    0x080028ac   0x080028ac   0x00000170   Code   RO         2579    i.UART_SetConfig    stm32f1xx_hal_uart.o
    0x08002a1c   0x08002a1c   0x00000062   Code   RO         2580    i.UART_Transmit_IT  stm32f1xx_hal_uart.o
    0x08002a7e   0x08002a7e   0x00000064   Code   RO         2581    i.UART_WaitOnFlagUntilTimeout  stm32f1xx_hal_uart.o
    0x08002ae2   0x08002ae2   0x00000002   PAD
    0x08002ae4   0x08002ae4   0x0000000c   Code   RO          241    i.USART1_IRQHandler  stm32f1xx_it.o
    0x08002af0   0x08002af0   0x0000000c   Code   RO          242    i.USART2_IRQHandler  stm32f1xx_it.o
    0x08002afc   0x08002afc   0x0000000c   Code   RO          243    i.USART3_IRQHandler  stm32f1xx_it.o
    0x08002b08   0x08002b08   0x00000002   Code   RO          244    i.UsageFault_Handler  stm32f1xx_it.o
    0x08002b0a   0x08002b0a   0x00000002   PAD
    0x08002b0c   0x08002b0c   0x000000f4   Code   RO          134    i.WifiInit          main.o
    0x08002c00   0x08002c00   0x00000028   Code   RO         3109    i.__0sprintf        mc_w.l(printfa.o)
    0x08002c28   0x08002c28   0x0000000e   Code   RO         3241    i.__scatterload_copy  mc_w.l(handlers.o)
    0x08002c36   0x08002c36   0x00000002   Code   RO         3242    i.__scatterload_null  mc_w.l(handlers.o)
    0x08002c38   0x08002c38   0x0000000e   Code   RO         3243    i.__scatterload_zeroinit  mc_w.l(handlers.o)
    0x08002c46   0x08002c46   0x00000002   PAD
    0x08002c48   0x08002c48   0x00000184   Code   RO         3114    i._fp_digits        mc_w.l(printfa.o)
    0x08002dcc   0x08002dcc   0x000006dc   Code   RO         3115    i._printf_core      mc_w.l(printfa.o)
    0x080034a8   0x080034a8   0x00000024   Code   RO         3116    i._printf_post_padding  mc_w.l(printfa.o)
    0x080034cc   0x080034cc   0x0000002e   Code   RO         3117    i._printf_pre_padding  mc_w.l(printfa.o)
    0x080034fa   0x080034fa   0x0000000a   Code   RO         3119    i._sputc            mc_w.l(printfa.o)
    0x08003504   0x08003504   0x00000058   Code   RO          136    i.checkbeginning    main.o
    0x0800355c   0x0800355c   0x00000010   Code   RO          599    i.clear             myqueue.o
    0x0800356c   0x0800356c   0x00000030   Code   RO          556    i.getnum            communication.o
    0x0800359c   0x0800359c   0x00000018   Code   RO          600    i.isempty           myqueue.o
    0x080035b4   0x080035b4   0x00000220   Code   RO          137    i.main              main.o
    0x080037d4   0x080037d4   0x0000007c   Code   RO          557    i.message_data      communication.o
    0x08003850   0x08003850   0x00000360   Code   RO          558    i.message_process   communication.o
    0x08003bb0   0x08003bb0   0x00000002   Code   RO          660    i.normalize         logic.o
    0x08003bb2   0x08003bb2   0x00000002   PAD
    0x08003bb4   0x08003bb4   0x00000030   Code   RO          601    i.pop               myqueue.o
    0x08003be4   0x08003be4   0x00000028   Code   RO          602    i.push              myqueue.o
    0x08003c0c   0x08003c0c   0x00000038   Code   RO          603    i.pushlist          myqueue.o
    0x08003c44   0x08003c44   0x00000010   Data   RO           15    .constdata          system_stm32f1xx.o
    0x08003c54   0x08003c54   0x00000008   Data   RO           16    .constdata          system_stm32f1xx.o
    0x08003c5c   0x08003c5c   0x00000020   Data   RO         3239    Region$$Table       anon$$obj.o


    Execution Region RW_IRAM1 (Exec base: 0x20000000, Load base: 0x08003c7c, Size: 0x00001138, Max: 0x0000c000, ABSOLUTE)

    Exec Addr    Load Addr    Size         Type   Attr      Idx    E Section Name        Object

    0x20000000   0x08003c7c   0x00000004   Data   RW           17    .data               system_stm32f1xx.o
    0x20000004   0x08003c80   0x00000010   Data   RW          139    .data               main.o
    0x20000014   0x08003c90   0x00000001   Data   RW          140    .data               main.o
    0x20000015   0x08003c91   0x00000001   Data   RW          383    .data               motion.o
    0x20000016   0x08003c92   0x00000002   PAD
    0x20000018   0x08003c94   0x00000020   Data   RW          492    .data               sensor.o
    0x20000038   0x08003cb4   0x00000030   Data   RW          561    .data               communication.o
    0x20000068   0x08003ce4   0x00000060   Data   RW          665    .data               logic.o
    0x200000c8   0x08003d44   0x00000004   Data   RW         2161    .data               stm32f1xx_hal.o
    0x200000cc        -       0x00000116   Zero   RW          138    .bss                main.o
    0x200001e2   0x08003d48   0x00000002   PAD
    0x200001e4        -       0x00000140   Zero   RW          491    .bss                sensor.o
    0x20000324        -       0x000006d8   Zero   RW          559    .bss                communication.o
    0x200009fc        -       0x00000048   Zero   RW          560    .bss                communication.o
    0x20000a44        -       0x00000158   Zero   RW          604    .bss                myqueue.o
    0x20000b9c        -       0x0000019c   Zero   RW          661    .bss                logic.o
    0x20000d38        -       0x00000400   Zero   RW            1    STACK               startup_stm32f103xe.o


==============================================================================

Image component sizes


      Code (inc. data)   RO Data    RW Data    ZI Data      Debug   Object Name

      1036         68          0         48       1824       3661   communication.o
       634        126          0         96        412       5795   logic.o
      1802        276          0         17        278       9509   main.o
       176         16          0          1          0       2447   motion.o
       280         46          0          0          0       3895   motor.o
       244         50          0          0        344       4008   myqueue.o
      1006        182          0         32        320       6435   sensor.o
        36          8        304          0       1024        804   startup_stm32f103xe.o
       132         22          0          4          0       3679   stm32f1xx_hal.o
       228         14          0          0          0      27421   stm32f1xx_hal_cortex.o
       304          8          0          0          0       1171   stm32f1xx_hal_dma.o
       508         42          0          0          0       3523   stm32f1xx_hal_gpio.o
       480         58          0          0          0       2833   stm32f1xx_hal_msp.o
      1296        104          0          0          0       5652   stm32f1xx_hal_rcc.o
       894         64          0          0          0       8289   stm32f1xx_hal_tim.o
       170          0          0          0          0       2076   stm32f1xx_hal_tim_ex.o
      1402         10          0          0          0       9327   stm32f1xx_hal_uart.o
        66         18          0          0          0       5142   stm32f1xx_it.o
        72         16         24          4          0     476339   system_stm32f1xx.o

    ----------------------------------------------------------------------
     10798       1128        360        204       4204     582006   Object Totals
         0          0         32          0          0          0   (incl. Generated)
        32          0          0          2          2          0   (incl. Padding)

    ----------------------------------------------------------------------

      Code (inc. data)   RO Data    RW Data    ZI Data      Debug   Library Member Name

         0          0          0          0          0          0   entry.o
         0          0          0          0          0          0   entry10a.o
         0          0          0          0          0          0   entry11a.o
         8          4          0          0          0          0   entry2.o
         4          0          0          0          0          0   entry5.o
         0          0          0          0          0          0   entry7b.o
         0          0          0          0          0          0   entry8b.o
         8          4          0          0          0          0   entry9a.o
        30          0          0          0          0          0   handlers.o
        36          8          0          0          0         68   init.o
         0          0          0          0          0          0   iusefp.o
        30          0          0          0          0         68   llshl.o
        36          0          0          0          0         68   llsshr.o
        32          0          0          0          0         68   llushr.o
      2276         86          0          0          0        520   printfa.o
        14          0          0          0          0         68   strlen.o
        44          0          0          0          0         80   uidiv.o
        98          0          0          0          0         92   uldiv.o
        48          0          0          0          0         68   cdrcmple.o
       334          0          0          0          0        148   dadd.o
       222          0          0          0          0        100   ddiv.o
       186          0          0          0          0        176   depilogue.o
        48          0          0          0          0         68   dfixul.o
       228          0          0          0          0         96   dmul.o
        38          0          0          0          0         68   f2d.o
       176          0          0          0          0        140   fadd.o
       124          0          0          0          0         88   fdiv.o
       110          0          0          0          0        168   fepilogue.o
        50          0          0          0          0         68   ffixi.o
        18          0          0          0          0         68   fflti.o
       100          0          0          0          0         76   fmul.o
        24          0          0          0          0         68   fscalb.o

    ----------------------------------------------------------------------
      4326        102          0          0          0       2432   Library Totals
         4          0          0          0          0          0   (incl. Padding)

    ----------------------------------------------------------------------

      Code (inc. data)   RO Data    RW Data    ZI Data      Debug   Library Name

      2616        102          0          0          0       1032   mc_w.l
      1706          0          0          0          0       1400   mf_w.l

    ----------------------------------------------------------------------
      4326        102          0          0          0       2432   Library Totals

    ----------------------------------------------------------------------

==============================================================================


      Code (inc. data)   RO Data    RW Data    ZI Data      Debug   

     15124       1230        360        204       4204     578194   Grand Totals
     15124       1230        360        204       4204     578194   ELF Image Totals
     15124       1230        360        204          0          0   ROM Totals

==============================================================================

    Total RO  Size (Code + RO Data)                15484 (  15.12kB)
    Total RW  Size (RW Data + ZI Data)              4408 (   4.30kB)
    Total ROM Size (Code + RO Data + RW Data)      15688 (  15.32kB)

==============================================================================

